{
  "contractName": "Market",
  "abi": [
    {
      "inputs": [
        {
          "internalType": "contract MembershipNFT",
          "name": "_token",
          "type": "address"
        }
      ],
      "stateMutability": "nonpayable",
      "type": "constructor"
    },
    {
      "anonymous": false,
      "inputs": [
        {
          "indexed": true,
          "internalType": "uint256",
          "name": "id",
          "type": "uint256"
        },
        {
          "indexed": true,
          "internalType": "uint256",
          "name": "tokenId",
          "type": "uint256"
        },
        {
          "indexed": false,
          "internalType": "uint256",
          "name": "price",
          "type": "uint256"
        }
      ],
      "name": "ListedForSale",
      "type": "event"
    },
    {
      "anonymous": false,
      "inputs": [
        {
          "indexed": false,
          "internalType": "uint256",
          "name": "id",
          "type": "uint256"
        },
        {
          "indexed": false,
          "internalType": "uint256",
          "name": "tokenId",
          "type": "uint256"
        },
        {
          "indexed": false,
          "internalType": "address",
          "name": "buyer",
          "type": "address"
        },
        {
          "indexed": false,
          "internalType": "uint256",
          "name": "price",
          "type": "uint256"
        }
      ],
      "name": "Sale",
      "type": "event"
    },
    {
      "inputs": [],
      "name": "Itemscount",
      "outputs": [
        {
          "internalType": "uint256",
          "name": "",
          "type": "uint256"
        }
      ],
      "stateMutability": "view",
      "type": "function"
    },
    {
      "inputs": [
        {
          "internalType": "uint256",
          "name": "",
          "type": "uint256"
        }
      ],
      "name": "activeItems",
      "outputs": [
        {
          "internalType": "bool",
          "name": "",
          "type": "bool"
        }
      ],
      "stateMutability": "view",
      "type": "function"
    },
    {
      "inputs": [
        {
          "internalType": "uint256",
          "name": "",
          "type": "uint256"
        }
      ],
      "name": "idtolistings",
      "outputs": [
        {
          "internalType": "uint256",
          "name": "id",
          "type": "uint256"
        },
        {
          "internalType": "uint256",
          "name": "tokenId",
          "type": "uint256"
        },
        {
          "internalType": "address payable",
          "name": "seller",
          "type": "address"
        },
        {
          "internalType": "uint256",
          "name": "price",
          "type": "uint256"
        },
        {
          "internalType": "bool",
          "name": "isSold",
          "type": "bool"
        }
      ],
      "stateMutability": "view",
      "type": "function"
    },
    {
      "inputs": [
        {
          "internalType": "uint256",
          "name": "tokenId",
          "type": "uint256"
        },
        {
          "internalType": "uint256",
          "name": "price",
          "type": "uint256"
        }
      ],
      "name": "listToken",
      "outputs": [
        {
          "internalType": "uint256",
          "name": "",
          "type": "uint256"
        }
      ],
      "stateMutability": "nonpayable",
      "type": "function"
    },
    {
      "inputs": [
        {
          "internalType": "uint256",
          "name": "id",
          "type": "uint256"
        }
      ],
      "name": "buyToken",
      "outputs": [],
      "stateMutability": "payable",
      "type": "function"
    },
    {
      "inputs": [],
      "name": "totalItemsForSale",
      "outputs": [
        {
          "internalType": "uint256",
          "name": "",
          "type": "uint256"
        }
      ],
      "stateMutability": "view",
      "type": "function"
    },
    {
      "inputs": [],
      "name": "getMarketItems",
      "outputs": [
        {
          "components": [
            {
              "internalType": "uint256",
              "name": "id",
              "type": "uint256"
            },
            {
              "internalType": "uint256",
              "name": "tokenId",
              "type": "uint256"
            },
            {
              "internalType": "address payable",
              "name": "seller",
              "type": "address"
            },
            {
              "internalType": "uint256",
              "name": "price",
              "type": "uint256"
            },
            {
              "internalType": "bool",
              "name": "isSold",
              "type": "bool"
            }
          ],
          "internalType": "struct Market.Listing[]",
          "name": "",
          "type": "tuple[]"
        }
      ],
      "stateMutability": "view",
      "type": "function"
    }
  ],
  "bytecode": "0x60806040523480156200001157600080fd5b50604051620018da380380620018da83398181016040528101906200003791906200013e565b80600260006101000a81548173ffffffffffffffffffffffffffffffffffffffff021916908373ffffffffffffffffffffffffffffffffffffffff16021790555033600360006101000a81548173ffffffffffffffffffffffffffffffffffffffff021916908373ffffffffffffffffffffffffffffffffffffffff1602179055505062000170565b600080fd5b600073ffffffffffffffffffffffffffffffffffffffff82169050919050565b6000620000f282620000c5565b9050919050565b60006200010682620000e5565b9050919050565b6200011881620000f9565b81146200012457600080fd5b50565b60008151905062000138816200010d565b92915050565b600060208284031215620001575762000156620000c0565b5b6000620001678482850162000127565b91505092915050565b61175a80620001806000396000f3fe6080604052600436106100705760003560e01c806375c1631d1161004e57806375c1631d146100e75780639c318c7b14610124578063a02f9f0d14610161578063ec8120c9146101a257610070565b806329aa3a42146100755780632d296bf1146100a05780633873fa7e146100bc575b600080fd5b34801561008157600080fd5b5061008a6101cd565b6040516100979190610fc5565b60405180910390f35b6100ba60048036038101906100b59190611018565b6103be565b005b3480156100c857600080fd5b506100d1610902565b6040516100de9190611054565b60405180910390f35b3480156100f357600080fd5b5061010e6004803603810190610109919061106f565b610908565b60405161011b9190611054565b60405180910390f35b34801561013057600080fd5b5061014b60048036038101906101469190611018565b610d41565b60405161015891906110be565b60405180910390f35b34801561016d57600080fd5b5061018860048036038101906101839190611018565b610d61565b6040516101999594939291906110e8565b60405180910390f35b3480156101ae57600080fd5b506101b7610dc4565b6040516101c49190611054565b60405180910390f35b606060006101db6000610dce565b905060006101e96001610dce565b6101f36000610dce565b6101fd919061116a565b90506000808267ffffffffffffffff81111561021c5761021b61119e565b5b60405190808252806020026020018201604052801561025557816020015b610242610df2565b81526020019060019003908161023a5790505b50905060005b848110156103b3576006600060018361027491906111cd565b815260200190815260200160002060040160009054906101000a900460ff166103a0576000600660006001846102aa91906111cd565b81526020019081526020016000206000015490506000600660008381526020019081526020016000209050806040518060a001604052908160008201548152602001600182015481526020016002820160009054906101000a900473ffffffffffffffffffffffffffffffffffffffff1673ffffffffffffffffffffffffffffffffffffffff1673ffffffffffffffffffffffffffffffffffffffff168152602001600382015481526020016004820160009054906101000a900460ff16151515158152505084868151811061038357610382611223565b5b602002602001018190525060018561039b91906111cd565b945050505b80806103ab90611252565b91505061025b565b508094505050505090565b806103c96000610dce565b81111580156103ed5750806006600083815260200190815260200160002060000154145b61042c576040517f08c379a0000000000000000000000000000000000000000000000000000000008152600401610423906112f8565b60405180910390fd5b816006600082815260200190815260200160002060040160009054906101000a900460ff1615610491576040517f08c379a000000000000000000000000000000000000000000000000000000000815260040161048890611364565b60405180910390fd5b60066000848152602001908152602001600020600101543073ffffffffffffffffffffffffffffffffffffffff16600260009054906101000a900473ffffffffffffffffffffffffffffffffffffffff1673ffffffffffffffffffffffffffffffffffffffff1663081812fc836040518263ffffffff1660e01b815260040161051a9190611054565b60206040518083038186803b15801561053257600080fd5b505afa158015610546573d6000803e3d6000fd5b505050506040513d601f19601f8201168201806040525081019061056a91906113c2565b73ffffffffffffffffffffffffffffffffffffffff16146105c0576040517f08c379a00000000000000000000000000000000000000000000000000000000081526004016105b79061143b565b60405180910390fd5b6006600085815260200190815260200160002060030154341015610619576040517f08c379a0000000000000000000000000000000000000000000000000000000008152600401610610906114a7565b60405180910390fd5b6006600085815260200190815260200160002060020160009054906101000a900473ffffffffffffffffffffffffffffffffffffffff1673ffffffffffffffffffffffffffffffffffffffff163373ffffffffffffffffffffffffffffffffffffffff1614156106be576040517f08c379a00000000000000000000000000000000000000000000000000000000081526004016106b590611513565b60405180910390fd5b60016006600086815260200190815260200160002060040160006101000a81548160ff0219169083151502179055506000600560006006600088815260200190815260200160002060010154815260200190815260200160002060006101000a81548160ff021916908315150217905550600260009054906101000a900473ffffffffffffffffffffffffffffffffffffffff1673ffffffffffffffffffffffffffffffffffffffff166342842e0e6006600087815260200190815260200160002060020160009054906101000a900473ffffffffffffffffffffffffffffffffffffffff163360066000898152602001908152602001600020600101546040518463ffffffff1660e01b81526004016107da939291906115a1565b600060405180830381600087803b1580156107f457600080fd5b505af1158015610808573d6000803e3d6000fd5b505050506108166001610ddc565b6006600085815260200190815260200160002060020160009054906101000a900473ffffffffffffffffffffffffffffffffffffffff1673ffffffffffffffffffffffffffffffffffffffff166108fc349081150290604051600060405180830381858888f19350505050158015610892573d6000803e3d6000fd5b507fffc865dadac95361c3265b19770bd4d6677fc28af384e9fe62125f3e6d89f1fd8460066000878152602001908152602001600020600101543360066000898152602001908152602001600020600301546040516108f494939291906115d8565b60405180910390a150505050565b60045481565b6000823373ffffffffffffffffffffffffffffffffffffffff16600260009054906101000a900473ffffffffffffffffffffffffffffffffffffffff1673ffffffffffffffffffffffffffffffffffffffff16636352211e836040518263ffffffff1660e01b815260040161097d9190611054565b60206040518083038186803b15801561099557600080fd5b505afa1580156109a9573d6000803e3d6000fd5b505050506040513d601f19601f820116820180604052508101906109cd91906113c2565b73ffffffffffffffffffffffffffffffffffffffff1614610a23576040517f08c379a0000000000000000000000000000000000000000000000000000000008152600401610a1a90611669565b60405180910390fd5b833073ffffffffffffffffffffffffffffffffffffffff16600260009054906101000a900473ffffffffffffffffffffffffffffffffffffffff1673ffffffffffffffffffffffffffffffffffffffff1663081812fc836040518263ffffffff1660e01b8152600401610a969190611054565b60206040518083038186803b158015610aae57600080fd5b505afa158015610ac2573d6000803e3d6000fd5b505050506040513d601f19601f82011682018060405250810190610ae691906113c2565b73ffffffffffffffffffffffffffffffffffffffff1614610b3c576040517f08c379a0000000000000000000000000000000000000000000000000000000008152600401610b339061143b565b60405180910390fd5b6005600086815260200190815260200160002060009054906101000a900460ff1615610b9d576040517f08c379a0000000000000000000000000000000000000000000000000000000008152600401610b94906116d5565b60405180910390fd5b610ba76000610ddc565b600160046000828254610bba91906111cd565b925050819055506000610bcd6000610dce565b90506040518060a001604052808281526020018781526020013373ffffffffffffffffffffffffffffffffffffffff1681526020018681526020016000151581525060066000838152602001908152602001600020600082015181600001556020820151816001015560408201518160020160006101000a81548173ffffffffffffffffffffffffffffffffffffffff021916908373ffffffffffffffffffffffffffffffffffffffff1602179055506060820151816003015560808201518160040160006101000a81548160ff02191690831515021790555090505060016005600088815260200190815260200160002060006101000a81548160ff02191690831515021790555080600660008381526020019081526020016000206000015414610cfc57610cfb6116f5565b5b85817f74706ad35f1c12f3ca2607baeb6813e31cd6978aef6dd1322ac56f2ffd6cfbdf87604051610d2d9190611054565b60405180910390a380935050505092915050565b60056020528060005260406000206000915054906101000a900460ff1681565b60066020528060005260406000206000915090508060000154908060010154908060020160009054906101000a900473ffffffffffffffffffffffffffffffffffffffff16908060030154908060040160009054906101000a900460ff16905085565b6000600454905090565b600081600001549050919050565b6001816000016000828254019250508190555050565b6040518060a001604052806000815260200160008152602001600073ffffffffffffffffffffffffffffffffffffffff168152602001600081526020016000151581525090565b600081519050919050565b600082825260208201905092915050565b6000819050602082019050919050565b6000819050919050565b610e7881610e65565b82525050565b600073ffffffffffffffffffffffffffffffffffffffff82169050919050565b6000610ea982610e7e565b9050919050565b610eb981610e9e565b82525050565b60008115159050919050565b610ed481610ebf565b82525050565b60a082016000820151610ef06000850182610e6f565b506020820151610f036020850182610e6f565b506040820151610f166040850182610eb0565b506060820151610f296060850182610e6f565b506080820151610f3c6080850182610ecb565b50505050565b6000610f4e8383610eda565b60a08301905092915050565b6000602082019050919050565b6000610f7282610e39565b610f7c8185610e44565b9350610f8783610e55565b8060005b83811015610fb8578151610f9f8882610f42565b9750610faa83610f5a565b925050600181019050610f8b565b5085935050505092915050565b60006020820190508181036000830152610fdf8184610f67565b905092915050565b600080fd5b610ff581610e65565b811461100057600080fd5b50565b60008135905061101281610fec565b92915050565b60006020828403121561102e5761102d610fe7565b5b600061103c84828501611003565b91505092915050565b61104e81610e65565b82525050565b60006020820190506110696000830184611045565b92915050565b6000806040838503121561108657611085610fe7565b5b600061109485828601611003565b92505060206110a585828601611003565b9150509250929050565b6110b881610ebf565b82525050565b60006020820190506110d360008301846110af565b92915050565b6110e281610e9e565b82525050565b600060a0820190506110fd6000830188611045565b61110a6020830187611045565b61111760408301866110d9565b6111246060830185611045565b61113160808301846110af565b9695505050505050565b7f4e487b7100000000000000000000000000000000000000000000000000000000600052601160045260246000fd5b600061117582610e65565b915061118083610e65565b9250828210156111935761119261113b565b5b828203905092915050565b7f4e487b7100000000000000000000000000000000000000000000000000000000600052604160045260246000fd5b60006111d882610e65565b91506111e383610e65565b9250827fffffffffffffffffffffffffffffffffffffffffffffffffffffffffffffffff038211156112185761121761113b565b5b828201905092915050565b7f4e487b7100000000000000000000000000000000000000000000000000000000600052603260045260246000fd5b600061125d82610e65565b91507fffffffffffffffffffffffffffffffffffffffffffffffffffffffffffffffff8214156112905761128f61113b565b5b600182019050919050565b600082825260208201905092915050565b7f436f756c64206e6f742066696e64206974656d00000000000000000000000000600082015250565b60006112e260138361129b565b91506112ed826112ac565b602082019050919050565b60006020820190508181036000830152611311816112d5565b9050919050565b7f4974656d20697320616c726561647920736f6c64000000000000000000000000600082015250565b600061134e60148361129b565b915061135982611318565b602082019050919050565b6000602082019050818103600083015261137d81611341565b9050919050565b600061138f82610e7e565b9050919050565b61139f81611384565b81146113aa57600080fd5b50565b6000815190506113bc81611396565b92915050565b6000602082840312156113d8576113d7610fe7565b5b60006113e6848285016113ad565b91505092915050565b7f4d61726b6574206973206e6f7420617070726f76656400000000000000000000600082015250565b600061142560168361129b565b9150611430826113ef565b602082019050919050565b6000602082019050818103600083015261145481611418565b9050919050565b7f4e6f7420656e6f7567682066756e64732073656e740000000000000000000000600082015250565b600061149160158361129b565b915061149c8261145b565b602082019050919050565b600060208201905081810360008301526114c081611484565b9050919050565b7f53656c6c65722063616e6e6f7420626520627579657200000000000000000000600082015250565b60006114fd60168361129b565b9150611508826114c7565b602082019050919050565b6000602082019050818103600083015261152c816114f0565b9050919050565b6000819050919050565b600061155861155361154e84610e7e565b611533565b610e7e565b9050919050565b600061156a8261153d565b9050919050565b600061157c8261155f565b9050919050565b61158c81611571565b82525050565b61159b81611384565b82525050565b60006060820190506115b66000830186611583565b6115c36020830185611592565b6115d06040830184611045565b949350505050565b60006080820190506115ed6000830187611045565b6115fa6020830186611045565b6116076040830185611592565b6116146060830184611045565b95945050505050565b7f53656e64657220646f6573206e6f74206f776e20746865206974656d00000000600082015250565b6000611653601c8361129b565b915061165e8261161d565b602082019050919050565b6000602082019050818103600083015261168281611646565b9050919050565b7f4974656d20697320616c726561647920757020666f722073616c650000000000600082015250565b60006116bf601b8361129b565b91506116ca82611689565b602082019050919050565b600060208201905081810360008301526116ee816116b2565b9050919050565b7f4e487b7100000000000000000000000000000000000000000000000000000000600052600160045260246000fdfea2646970667358221220f628df6ddf9f0ee92d7bf91fdcc1300a12955d4588995a1dcacf29d11c4198db64736f6c63430008090033",
  "immutableReferences": {},
  "source": "// SPDX-License-Identifier: MIT\r\npragma solidity ^0.8.9;\r\n\r\nimport \"./MembershipNFT.sol\";\r\n// import \"@openzeppelin/contracts/token/ERC721/IERC721.sol\";\r\n\r\n\r\ncontract Market {\r\n\tusing Counters for Counters.Counter;\r\n\tCounters.Counter private _ItemIds;\r\n\tCounters.Counter private _ItemsSold;\r\n\tMembershipNFT private token;\r\n\taddress payable owner;\r\n\r\n\r\n\tstruct Listing {\r\n\t\tuint256 id;\r\n\t\tuint256 tokenId;\r\n\t\taddress payable seller; \r\n //address to token contract\r\n\t\tuint256 price;\r\n\t\tbool isSold;\r\n\t}\r\n\r\n\tevent ListedForSale(\r\n\t\tuint256 indexed id,\r\n\t\tuint256  indexed tokenId,\r\n\t\tuint256 price\r\n\t);\r\n\r\n\tevent Sale(\r\n\t\tuint256 id,\r\n\t\tuint256 tokenId,\r\n\t\taddress buyer,\r\n\t\tuint256 price\r\n\t);\r\n\r\n\t// event Cancel(\r\n\t// \tuint256 id,\r\n\t// \taddress seller\r\n\t// );\r\n\r\n\r\nuint public Itemscount;\r\n\t// uint private _listingId = 0;\r\n\t// Listing[] public listingobj;\r\n\tmapping(uint256 => bool) public activeItems;\r\n\tmapping(uint256 => Listing) public idtolistings;\r\n\r\n\tconstructor(MembershipNFT _token) {\r\n      token = _token;\r\n\t  owner= payable(msg.sender);\r\n  }\r\n\r\n modifier OnlyItemOwner(uint256 tokenId){\r\n    require(token.ownerOf(tokenId) == msg.sender, \"Sender does not own the item\");\r\n    _;\r\n  }\r\n\r\n   modifier HasTransferApproval(uint256 tokenId){\r\n    require(token.getApproved(tokenId) == address(this), \"Market is not approved\");\r\n    _;\r\n  }\r\n\r\n    modifier ItemExists(uint256 id){\r\n    require(id <= _ItemIds.current() && idtolistings[id].id == id, \"Could not find item\");\r\n    _;\r\n  }\r\n\r\n   modifier IsForSale(uint256 id){\r\n    require(!idtolistings[id].isSold, \"Item is already sold\");\r\n    _;\r\n  }\r\n\r\n\tfunction listToken(uint256 tokenId, uint256 price) OnlyItemOwner(tokenId) \r\n    HasTransferApproval(tokenId) external  returns (uint256) {\r\n\t\t// require(IERC721(token).ownerOf(tokenId) ==msg.sender, \"First buy Membership\");\r\n\t\t// IERC721(token).transferFrom(msg.sender, address(this), tokenId);\r\n\t\trequire(!activeItems[tokenId], \"Item is already up for sale\");\r\n\r\n\t\t_ItemIds.increment();\r\n\t\tItemscount +=1;\r\n\t\tuint256 itemId= _ItemIds.current();\r\n\r\n\t\tidtolistings[itemId]= Listing(\r\n\t\t\titemId,\r\n\t\t\ttokenId,\r\n\t\t\tpayable(msg.sender),\r\n //no one is the owner currenlty\r\n\t\t\tprice,\r\n\t\t\tfalse\r\n\t\t);\r\n\t\t activeItems[tokenId] = true;\r\n\r\n      assert(idtolistings[itemId].id == itemId);\r\n\t//   token.approve(address(this), tokenId);\r\n\t//   token.transferFrom(msg.sender,address(this),tokenId);\r\n\r\n\t\t// uint256 newItemId = listingobj.length;\r\n\t// \tlistingobj.push(Listing({\r\n    //     id: newItemId,\r\n    //     tokenId: tokenId,\r\n    //     seller: payable(msg.sender),\r\n    //     price: price,\r\n        \r\n    //   }));\r\n\t\t// Listing memory listing = Listing(\r\n\t\t// \tListingStatus.Active,\r\n\t\t// \tmsg.sender, //seller(current address)\r\n\t\t// \ttoken,\r\n\t\t// \ttokenId,\r\n\t\t// \tprice\r\n\t\t// );\r\n\r\n\t\t// _listingId++;\r\n\t\t// itemcount++;\r\n\r\n\t\t// _listings[_listingId] = listing;\r\n\r\n\t\temit ListedForSale(\r\n\t\t\titemId,tokenId,\r\n\t\t\tprice\r\n\t\t);\r\n\t\t return itemId;\r\n\t}\r\n\r\n// modifier member(){\r\n// \t\t// require(IERC721(token).ownerOf(tokenId) ==msg.sender, \"First buy Membership\");\r\n// \t}\r\n\t\r\n\r\n    \r\n\tfunction buyToken(uint id) ItemExists(id)\r\n    IsForSale(id)\r\n    HasTransferApproval(idtolistings[id].tokenId) external payable {\r\n\r\n\trequire(msg.value >= idtolistings[id].price, \"Not enough funds sent\");\r\n      require(msg.sender != idtolistings[id].seller,\"Seller cannot be buyer\");\r\n\r\n\t idtolistings[id].isSold = true;\r\n      activeItems[idtolistings[id].tokenId] = false;\r\n\t\t// Listing storage listing = _listings[listingId];\r\n\r\n\t\t// require(msg.sender != listing.seller, \"Seller cannot be buyer\");\r\n\r\n\t\t// require(listing.status == ListingStatus.Active, \"Listing is not active\");\r\n\r\n\t\t// require(msg.value >= listing.price, \"Insufficient payment\");\r\n\r\n\t\t// listing.status = ListingStatus.Sold;\r\n\t\ttoken.safeTransferFrom(idtolistings[id].seller, msg.sender, idtolistings[id].tokenId);\r\n\t\t_ItemsSold.increment();\r\n      idtolistings[id].seller.transfer(msg.value);\r\n\r\n\t\t// IERC721(listing.token).transferFrom(address(this), msg.sender, listing.tokenId);\r\n\t\t// payable(listing.seller).transfer(listing.price);\r\n\r\n\t\temit Sale(\r\n\t\t\tid,idtolistings[id].tokenId,\r\n\t\t\tmsg.sender,\r\n\t\t\tidtolistings[id].price\r\n\t\t);\r\n\t}\r\n\r\n function totalItemsForSale() external view returns(uint) {\r\n    return Itemscount;\r\n  }\r\n\tfunction getMarketItems() public view returns (Listing[] memory){\r\n\t\tuint itemcount= _ItemIds.current();\r\n\t\tuint unsoldItem= _ItemIds.current() - _ItemsSold.current();\r\n\r\n\t\tuint currentIndex= 0;\r\n\r\n\t\tListing[] memory items= new Listing[] (unsoldItem);\r\n\r\n\t\tfor(uint i=0; i< itemcount;i++)\r\n\t\t{\r\n\t\t\tif(!idtolistings[i+1].isSold)\r\n\t\t\t{\r\n\t\t\t\tuint curentID= idtolistings[i+1].id;\r\n\t\t\t\tListing storage currentItem= idtolistings[curentID];\r\n\t\t\t\titems[currentIndex] = currentItem;\r\n\t\t\t\tcurrentIndex +=1;\r\n\t\t\t}\r\n\t\t}\r\n\r\n\t\treturn items;\r\n\t\t\r\n\t}\r\n\t// function getListing(uint256 id) public view returns (Listing memory) {\r\n\t// \t// require(IERC721(token).ownerOf(tokenId) ==msg.sender, \"First buy Membership\");\r\n\t// \treturn _listings[listingId];\r\n\t// }\r\n    \r\n\t\r\n\r\n\t// function cancel(uint listingId) public {\r\n\t// \tListing storage listing = _listings[listingId];\r\n\r\n\t// \trequire(msg.sender == listing.seller, \"Only seller can cancel listing\");\r\n\t// \trequire(listing.status == ListingStatus.Active, \"Listing is not active\");\r\n\r\n\t// \tlisting.status = ListingStatus.Cancelled;\r\n\t\r\n\t// \tIERC721(listing.token).transferFrom(address(this), msg.sender, listing.tokenId);\r\n\r\n\t// \temit Cancel(listingId, listing.seller);\r\n\t// }\r\n}\r\n",
  "sourcePath": "D:\\blockchainproject\\FinalProject\\contracts\\Market.sol",
  "compiler": {
    "name": "solc",
    "version": "0.8.9+commit.e5eed63a.Emscripten.clang"
  },
  "schemaVersion": "3.4.4",
  "updatedAt": "2022-04-26T19:48:43.675Z",
  "devdoc": {
    "kind": "dev",
    "methods": {},
    "version": 1
  },
  "userdoc": {
    "kind": "user",
    "methods": {},
    "version": 1
  }
}