{
  "contractName": "Market",
  "abi": [
    {
      "inputs": [
        {
          "internalType": "contract MembershipNFT",
          "name": "_token",
          "type": "address"
        }
      ],
      "stateMutability": "nonpayable",
      "type": "constructor"
    },
    {
      "anonymous": false,
      "inputs": [
        {
          "indexed": true,
          "internalType": "uint256",
          "name": "id",
          "type": "uint256"
        },
        {
          "indexed": true,
          "internalType": "uint256",
          "name": "tokenId",
          "type": "uint256"
        },
        {
          "indexed": false,
          "internalType": "uint256",
          "name": "price",
          "type": "uint256"
        }
      ],
      "name": "ListedForSale",
      "type": "event"
    },
    {
      "anonymous": false,
      "inputs": [
        {
          "indexed": false,
          "internalType": "uint256",
          "name": "id",
          "type": "uint256"
        },
        {
          "indexed": false,
          "internalType": "uint256",
          "name": "tokenId",
          "type": "uint256"
        },
        {
          "indexed": false,
          "internalType": "address",
          "name": "buyer",
          "type": "address"
        },
        {
          "indexed": false,
          "internalType": "uint256",
          "name": "price",
          "type": "uint256"
        }
      ],
      "name": "Sale",
      "type": "event"
    },
    {
      "inputs": [],
      "name": "Itemscount",
      "outputs": [
        {
          "internalType": "uint256",
          "name": "",
          "type": "uint256"
        }
      ],
      "stateMutability": "view",
      "type": "function",
      "constant": true
    },
    {
      "inputs": [
        {
          "internalType": "uint256",
          "name": "",
          "type": "uint256"
        }
      ],
      "name": "activeItems",
      "outputs": [
        {
          "internalType": "bool",
          "name": "",
          "type": "bool"
        }
      ],
      "stateMutability": "view",
      "type": "function",
      "constant": true
    },
    {
      "inputs": [
        {
          "internalType": "uint256",
          "name": "",
          "type": "uint256"
        }
      ],
      "name": "idtolistings",
      "outputs": [
        {
          "internalType": "uint256",
          "name": "id",
          "type": "uint256"
        },
        {
          "internalType": "uint256",
          "name": "tokenId",
          "type": "uint256"
        },
        {
          "internalType": "address payable",
          "name": "seller",
          "type": "address"
        },
        {
          "internalType": "uint256",
          "name": "price",
          "type": "uint256"
        },
        {
          "internalType": "bool",
          "name": "isSold",
          "type": "bool"
        }
      ],
      "stateMutability": "view",
      "type": "function",
      "constant": true
    },
    {
      "inputs": [
        {
          "internalType": "uint256",
          "name": "tokenId",
          "type": "uint256"
        },
        {
          "internalType": "uint256",
          "name": "price",
          "type": "uint256"
        }
      ],
      "name": "listToken",
      "outputs": [
        {
          "internalType": "uint256",
          "name": "",
          "type": "uint256"
        }
      ],
      "stateMutability": "nonpayable",
      "type": "function"
    },
    {
      "inputs": [
        {
          "internalType": "uint256",
          "name": "id",
          "type": "uint256"
        }
      ],
      "name": "buyToken",
      "outputs": [],
      "stateMutability": "payable",
      "type": "function",
      "payable": true
    },
    {
      "inputs": [],
      "name": "totalItemsForSale",
      "outputs": [
        {
          "internalType": "uint256",
          "name": "",
          "type": "uint256"
        }
      ],
      "stateMutability": "view",
      "type": "function",
      "constant": true
    },
    {
      "inputs": [],
      "name": "getMarketItems",
      "outputs": [
        {
          "components": [
            {
              "internalType": "uint256",
              "name": "id",
              "type": "uint256"
            },
            {
              "internalType": "uint256",
              "name": "tokenId",
              "type": "uint256"
            },
            {
              "internalType": "address payable",
              "name": "seller",
              "type": "address"
            },
            {
              "internalType": "uint256",
              "name": "price",
              "type": "uint256"
            },
            {
              "internalType": "bool",
              "name": "isSold",
              "type": "bool"
            }
          ],
          "internalType": "struct Market.Listing[]",
          "name": "",
          "type": "tuple[]"
        }
      ],
      "stateMutability": "view",
      "type": "function",
      "constant": true
    }
  ],
  "bytecode": "0x60806040523480156200001157600080fd5b5060405162001ba938038062001ba983398181016040528101906200003791906200013e565b80600260006101000a81548173ffffffffffffffffffffffffffffffffffffffff021916908373ffffffffffffffffffffffffffffffffffffffff16021790555033600360006101000a81548173ffffffffffffffffffffffffffffffffffffffff021916908373ffffffffffffffffffffffffffffffffffffffff1602179055505062000170565b600080fd5b600073ffffffffffffffffffffffffffffffffffffffff82169050919050565b6000620000f282620000c5565b9050919050565b60006200010682620000e5565b9050919050565b6200011881620000f9565b81146200012457600080fd5b50565b60008151905062000138816200010d565b92915050565b600060208284031215620001575762000156620000c0565b5b6000620001678482850162000127565b91505092915050565b611a2980620001806000396000f3fe6080604052600436106100705760003560e01c806375c1631d1161004e57806375c1631d146100e75780639c318c7b14610124578063a02f9f0d14610161578063ec8120c9146101a257610070565b806329aa3a42146100755780632d296bf1146100a05780633873fa7e146100bc575b600080fd5b34801561008157600080fd5b5061008a6101cd565b60405161009791906111a5565b60405180910390f35b6100ba60048036038101906100b591906111f8565b6103be565b005b3480156100c857600080fd5b506100d16109f2565b6040516100de9190611234565b60405180910390f35b3480156100f357600080fd5b5061010e6004803603810190610109919061124f565b6109f8565b60405161011b9190611234565b60405180910390f35b34801561013057600080fd5b5061014b600480360381019061014691906111f8565b610f21565b604051610158919061129e565b60405180910390f35b34801561016d57600080fd5b50610188600480360381019061018391906111f8565b610f41565b6040516101999594939291906112c8565b60405180910390f35b3480156101ae57600080fd5b506101b7610fa4565b6040516101c49190611234565b60405180910390f35b606060006101db6000610fae565b905060006101e96001610fae565b6101f36000610fae565b6101fd919061134a565b90506000808267ffffffffffffffff81111561021c5761021b61137e565b5b60405190808252806020026020018201604052801561025557816020015b610242610fd2565b81526020019060019003908161023a5790505b50905060005b848110156103b3576006600060018361027491906113ad565b815260200190815260200160002060040160009054906101000a900460ff166103a0576000600660006001846102aa91906113ad565b81526020019081526020016000206000015490506000600660008381526020019081526020016000209050806040518060a001604052908160008201548152602001600182015481526020016002820160009054906101000a900473ffffffffffffffffffffffffffffffffffffffff1673ffffffffffffffffffffffffffffffffffffffff1673ffffffffffffffffffffffffffffffffffffffff168152602001600382015481526020016004820160009054906101000a900460ff16151515158152505084868151811061038357610382611403565b5b602002602001018190525060018561039b91906113ad565b945050505b80806103ab90611432565b91505061025b565b508094505050505090565b806103c96000610fae565b81111580156103ed5750806006600083815260200190815260200160002060000154145b61042c576040517f08c379a0000000000000000000000000000000000000000000000000000000008152600401610423906114d8565b60405180910390fd5b336001600260009054906101000a900473ffffffffffffffffffffffffffffffffffffffff1673ffffffffffffffffffffffffffffffffffffffff166370a08231836040518263ffffffff1660e01b815260040161048a9190611519565b60206040518083038186803b1580156104a257600080fd5b505afa1580156104b6573d6000803e3d6000fd5b505050506040513d601f19601f820116820180604052508101906104da9190611549565b101561051b576040517f08c379a0000000000000000000000000000000000000000000000000000000008152600401610512906115e8565b60405180910390fd5b826006600082815260200190815260200160002060040160009054906101000a900460ff1615610580576040517f08c379a000000000000000000000000000000000000000000000000000000000815260040161057790611654565b60405180910390fd5b60066000858152602001908152602001600020600101543073ffffffffffffffffffffffffffffffffffffffff16600260009054906101000a900473ffffffffffffffffffffffffffffffffffffffff1673ffffffffffffffffffffffffffffffffffffffff1663081812fc836040518263ffffffff1660e01b81526004016106099190611234565b60206040518083038186803b15801561062157600080fd5b505afa158015610635573d6000803e3d6000fd5b505050506040513d601f19601f8201168201806040525081019061065991906116a0565b73ffffffffffffffffffffffffffffffffffffffff16146106af576040517f08c379a00000000000000000000000000000000000000000000000000000000081526004016106a690611719565b60405180910390fd5b6006600086815260200190815260200160002060030154341015610708576040517f08c379a00000000000000000000000000000000000000000000000000000000081526004016106ff90611785565b60405180910390fd5b6006600086815260200190815260200160002060020160009054906101000a900473ffffffffffffffffffffffffffffffffffffffff1673ffffffffffffffffffffffffffffffffffffffff163373ffffffffffffffffffffffffffffffffffffffff1614156107ad576040517f08c379a00000000000000000000000000000000000000000000000000000000081526004016107a4906117f1565b60405180910390fd5b60016006600087815260200190815260200160002060040160006101000a81548160ff0219169083151502179055506000600560006006600089815260200190815260200160002060010154815260200190815260200160002060006101000a81548160ff021916908315150217905550600260009054906101000a900473ffffffffffffffffffffffffffffffffffffffff1673ffffffffffffffffffffffffffffffffffffffff166342842e0e6006600088815260200190815260200160002060020160009054906101000a900473ffffffffffffffffffffffffffffffffffffffff1633600660008a8152602001908152602001600020600101546040518463ffffffff1660e01b81526004016108c993929190611870565b600060405180830381600087803b1580156108e357600080fd5b505af11580156108f7573d6000803e3d6000fd5b505050506109056001610fbc565b6006600086815260200190815260200160002060020160009054906101000a900473ffffffffffffffffffffffffffffffffffffffff1673ffffffffffffffffffffffffffffffffffffffff166108fc349081150290604051600060405180830381858888f19350505050158015610981573d6000803e3d6000fd5b507fffc865dadac95361c3265b19770bd4d6677fc28af384e9fe62125f3e6d89f1fd85600660008881526020019081526020016000206001015433600660008a8152602001908152602001600020600301546040516109e394939291906118a7565b60405180910390a15050505050565b60045481565b6000336001600260009054906101000a900473ffffffffffffffffffffffffffffffffffffffff1673ffffffffffffffffffffffffffffffffffffffff166370a08231836040518263ffffffff1660e01b8152600401610a589190611519565b60206040518083038186803b158015610a7057600080fd5b505afa158015610a84573d6000803e3d6000fd5b505050506040513d601f19601f82011682018060405250810190610aa89190611549565b1015610ae9576040517f08c379a0000000000000000000000000000000000000000000000000000000008152600401610ae0906115e8565b60405180910390fd5b833373ffffffffffffffffffffffffffffffffffffffff16600260009054906101000a900473ffffffffffffffffffffffffffffffffffffffff1673ffffffffffffffffffffffffffffffffffffffff16636352211e836040518263ffffffff1660e01b8152600401610b5c9190611234565b60206040518083038186803b158015610b7457600080fd5b505afa158015610b88573d6000803e3d6000fd5b505050506040513d601f19601f82011682018060405250810190610bac91906116a0565b73ffffffffffffffffffffffffffffffffffffffff1614610c02576040517f08c379a0000000000000000000000000000000000000000000000000000000008152600401610bf990611938565b60405180910390fd5b843073ffffffffffffffffffffffffffffffffffffffff16600260009054906101000a900473ffffffffffffffffffffffffffffffffffffffff1673ffffffffffffffffffffffffffffffffffffffff1663081812fc836040518263ffffffff1660e01b8152600401610c759190611234565b60206040518083038186803b158015610c8d57600080fd5b505afa158015610ca1573d6000803e3d6000fd5b505050506040513d601f19601f82011682018060405250810190610cc591906116a0565b73ffffffffffffffffffffffffffffffffffffffff1614610d1b576040517f08c379a0000000000000000000000000000000000000000000000000000000008152600401610d1290611719565b60405180910390fd5b6005600087815260200190815260200160002060009054906101000a900460ff1615610d7c576040517f08c379a0000000000000000000000000000000000000000000000000000000008152600401610d73906119a4565b60405180910390fd5b610d866000610fbc565b600160046000828254610d9991906113ad565b925050819055506000610dac6000610fae565b90506040518060a001604052808281526020018881526020013373ffffffffffffffffffffffffffffffffffffffff1681526020018781526020016000151581525060066000838152602001908152602001600020600082015181600001556020820151816001015560408201518160020160006101000a81548173ffffffffffffffffffffffffffffffffffffffff021916908373ffffffffffffffffffffffffffffffffffffffff1602179055506060820151816003015560808201518160040160006101000a81548160ff02191690831515021790555090505060016005600089815260200190815260200160002060006101000a81548160ff02191690831515021790555080600660008381526020019081526020016000206000015414610edb57610eda6119c4565b5b86817f74706ad35f1c12f3ca2607baeb6813e31cd6978aef6dd1322ac56f2ffd6cfbdf88604051610f0c9190611234565b60405180910390a38094505050505092915050565b60056020528060005260406000206000915054906101000a900460ff1681565b60066020528060005260406000206000915090508060000154908060010154908060020160009054906101000a900473ffffffffffffffffffffffffffffffffffffffff16908060030154908060040160009054906101000a900460ff16905085565b6000600454905090565b600081600001549050919050565b6001816000016000828254019250508190555050565b6040518060a001604052806000815260200160008152602001600073ffffffffffffffffffffffffffffffffffffffff168152602001600081526020016000151581525090565b600081519050919050565b600082825260208201905092915050565b6000819050602082019050919050565b6000819050919050565b61105881611045565b82525050565b600073ffffffffffffffffffffffffffffffffffffffff82169050919050565b60006110898261105e565b9050919050565b6110998161107e565b82525050565b60008115159050919050565b6110b48161109f565b82525050565b60a0820160008201516110d0600085018261104f565b5060208201516110e3602085018261104f565b5060408201516110f66040850182611090565b506060820151611109606085018261104f565b50608082015161111c60808501826110ab565b50505050565b600061112e83836110ba565b60a08301905092915050565b6000602082019050919050565b600061115282611019565b61115c8185611024565b935061116783611035565b8060005b8381101561119857815161117f8882611122565b975061118a8361113a565b92505060018101905061116b565b5085935050505092915050565b600060208201905081810360008301526111bf8184611147565b905092915050565b600080fd5b6111d581611045565b81146111e057600080fd5b50565b6000813590506111f2816111cc565b92915050565b60006020828403121561120e5761120d6111c7565b5b600061121c848285016111e3565b91505092915050565b61122e81611045565b82525050565b60006020820190506112496000830184611225565b92915050565b60008060408385031215611266576112656111c7565b5b6000611274858286016111e3565b9250506020611285858286016111e3565b9150509250929050565b6112988161109f565b82525050565b60006020820190506112b3600083018461128f565b92915050565b6112c28161107e565b82525050565b600060a0820190506112dd6000830188611225565b6112ea6020830187611225565b6112f760408301866112b9565b6113046060830185611225565b611311608083018461128f565b9695505050505050565b7f4e487b7100000000000000000000000000000000000000000000000000000000600052601160045260246000fd5b600061135582611045565b915061136083611045565b9250828210156113735761137261131b565b5b828203905092915050565b7f4e487b7100000000000000000000000000000000000000000000000000000000600052604160045260246000fd5b60006113b882611045565b91506113c383611045565b9250827fffffffffffffffffffffffffffffffffffffffffffffffffffffffffffffffff038211156113f8576113f761131b565b5b828201905092915050565b7f4e487b7100000000000000000000000000000000000000000000000000000000600052603260045260246000fd5b600061143d82611045565b91507fffffffffffffffffffffffffffffffffffffffffffffffffffffffffffffffff8214156114705761146f61131b565b5b600182019050919050565b600082825260208201905092915050565b7f436f756c64206e6f742066696e64206974656d00000000000000000000000000600082015250565b60006114c260138361147b565b91506114cd8261148c565b602082019050919050565b600060208201905081810360008301526114f1816114b5565b9050919050565b60006115038261105e565b9050919050565b611513816114f8565b82525050565b600060208201905061152e600083018461150a565b92915050565b600081519050611543816111cc565b92915050565b60006020828403121561155f5761155e6111c7565b5b600061156d84828501611534565b91505092915050565b7f596f7520646f6e27742068617665206d656d626572736869702c204d696e742060008201527f6f6e65204e667420746f6b656e20616e642074727920616761696e2e00000000602082015250565b60006115d2603c8361147b565b91506115dd82611576565b604082019050919050565b60006020820190508181036000830152611601816115c5565b9050919050565b7f4974656d20697320616c726561647920736f6c64000000000000000000000000600082015250565b600061163e60148361147b565b915061164982611608565b602082019050919050565b6000602082019050818103600083015261166d81611631565b9050919050565b61167d816114f8565b811461168857600080fd5b50565b60008151905061169a81611674565b92915050565b6000602082840312156116b6576116b56111c7565b5b60006116c48482850161168b565b91505092915050565b7f4d61726b6574206973206e6f7420617070726f76656400000000000000000000600082015250565b600061170360168361147b565b915061170e826116cd565b602082019050919050565b60006020820190508181036000830152611732816116f6565b9050919050565b7f4e6f7420656e6f7567682066756e64732073656e740000000000000000000000600082015250565b600061176f60158361147b565b915061177a82611739565b602082019050919050565b6000602082019050818103600083015261179e81611762565b9050919050565b7f53656c6c65722063616e6e6f7420626520627579657200000000000000000000600082015250565b60006117db60168361147b565b91506117e6826117a5565b602082019050919050565b6000602082019050818103600083015261180a816117ce565b9050919050565b6000819050919050565b600061183661183161182c8461105e565b611811565b61105e565b9050919050565b60006118488261181b565b9050919050565b600061185a8261183d565b9050919050565b61186a8161184f565b82525050565b60006060820190506118856000830186611861565b611892602083018561150a565b61189f6040830184611225565b949350505050565b60006080820190506118bc6000830187611225565b6118c96020830186611225565b6118d6604083018561150a565b6118e36060830184611225565b95945050505050565b7f53656e64657220646f6573206e6f74206f776e20746865206974656d00000000600082015250565b6000611922601c8361147b565b915061192d826118ec565b602082019050919050565b6000602082019050818103600083015261195181611915565b9050919050565b7f4974656d20697320616c726561647920757020666f722073616c650000000000600082015250565b600061198e601b8361147b565b915061199982611958565b602082019050919050565b600060208201905081810360008301526119bd81611981565b9050919050565b7f4e487b7100000000000000000000000000000000000000000000000000000000600052600160045260246000fdfea2646970667358221220ffd96e92a9e2195bf1875c45810858a082a2733b825a633940b7a0357f492b5b64736f6c63430008090033",
  "immutableReferences": {},
  "source": "// SPDX-License-Identifier: MIT\r\npragma solidity ^0.8.9;\r\n\r\nimport \"./MembershipNFT.sol\";\r\n// import \"@openzeppelin/contracts/token/ERC721/IERC721.sol\";\r\n\r\n\r\ncontract Market {\r\n\tusing Counters for Counters.Counter;\r\n\tCounters.Counter private _ItemIds;\r\n\tCounters.Counter private _ItemsSold;\r\n\tMembershipNFT private token;\r\n\taddress payable owner;\r\n\r\n\r\n\tstruct Listing {\r\n\t\tuint256 id;\r\n\t\tuint256 tokenId;\r\n\t\taddress payable seller; \r\n //address to token contract\r\n\t\tuint256 price;\r\n\t\tbool isSold;\r\n\t}\r\n\r\n\tevent ListedForSale(\r\n\t\tuint256 indexed id,\r\n\t\tuint256  indexed tokenId,\r\n\t\tuint256 price\r\n\t);\r\n\r\n\tevent Sale(\r\n\t\tuint256 id,\r\n\t\tuint256 tokenId,\r\n\t\taddress buyer,\r\n\t\tuint256 price\r\n\t);\r\n\r\n\t// event Cancel(\r\n\t// \tuint256 id,\r\n\t// \taddress seller\r\n\t// );\r\n\r\n\r\nuint public Itemscount;\r\n\t// uint private _listingId = 0;\r\n\t// Listing[] public listingobj;\r\n\tmapping(uint256 => bool) public activeItems;\r\n\tmapping(uint256 => Listing) public idtolistings;\r\n\r\n\tconstructor(MembershipNFT _token) {\r\n      token = _token;\r\n\t  owner= payable(msg.sender);\r\n  }\r\n\r\n modifier checkMembership(address ad1){\r\n\t \r\n\t//  require(token.name().toString() ==\"Membership\",\"You don't have membership, Mint one Nft token and try again.\");\r\n    require(token.balanceOf(ad1) >=1, \"You don't have membership, Mint one Nft token and try again.\");\r\n    _;\r\n  }\r\n modifier OnlyItemOwner(uint256 tokenId){\r\n    require(token.ownerOf(tokenId) == msg.sender, \"Sender does not own the item\");\r\n    _;\r\n  }\r\n\r\n   modifier HasTransferApproval(uint256 tokenId){\r\n    require(token.getApproved(tokenId) == address(this), \"Market is not approved\");\r\n    _;\r\n  }\r\n\r\n    modifier ItemExists(uint256 id){\r\n    require(id <= _ItemIds.current() && idtolistings[id].id == id, \"Could not find item\");\r\n    _;\r\n  }\r\n\r\n   modifier IsForSale(uint256 id){\r\n    require(!idtolistings[id].isSold, \"Item is already sold\");\r\n    _;\r\n  }\r\n\r\n\tfunction listToken(uint256 tokenId, uint256 price) \r\n\tcheckMembership(msg.sender)\r\n\tOnlyItemOwner(tokenId)\r\n\t \r\n    HasTransferApproval(tokenId) external  returns (uint256) {\r\n\t\t// require(IERC721(token).ownerOf(tokenId) ==msg.sender, \"First buy Membership\");\r\n\t\t// IERC721(token).transferFrom(msg.sender, address(this), tokenId);\r\n\t\trequire(!activeItems[tokenId], \"Item is already up for sale\");\r\n\r\n\t\t_ItemIds.increment();\r\n\t\tItemscount +=1;\r\n\t\tuint256 itemId= _ItemIds.current();\r\n\r\n\t\tidtolistings[itemId]= Listing(\r\n\t\t\titemId,\r\n\t\t\ttokenId,\r\n\t\t\tpayable(msg.sender),\r\n //no one is the owner currenlty\r\n\t\t\tprice,\r\n\t\t\tfalse\r\n\t\t);\r\n\t\t activeItems[tokenId] = true;\r\n\r\n      assert(idtolistings[itemId].id == itemId);\r\n\t//   token.approve(address(this), tokenId);\r\n\t//   token.transferFrom(msg.sender,address(this),tokenId);\r\n\r\n\t\t// uint256 newItemId = listingobj.length;\r\n\t// \tlistingobj.push(Listing({\r\n    //     id: newItemId,\r\n    //     tokenId: tokenId,\r\n    //     seller: payable(msg.sender),\r\n    //     price: price,\r\n        \r\n    //   }));\r\n\t\t// Listing memory listing = Listing(\r\n\t\t// \tListingStatus.Active,\r\n\t\t// \tmsg.sender, //seller(current address)\r\n\t\t// \ttoken,\r\n\t\t// \ttokenId,\r\n\t\t// \tprice\r\n\t\t// );\r\n\r\n\t\t// _listingId++;\r\n\t\t// itemcount++;\r\n\r\n\t\t// _listings[_listingId] = listing;\r\n\r\n\t\temit ListedForSale(\r\n\t\t\titemId,tokenId,\r\n\t\t\tprice\r\n\t\t);\r\n\t\t return itemId;\r\n\t}\r\n\r\n// modifier member(){\r\n// \t\t// require(IERC721(token).ownerOf(tokenId) ==msg.sender, \"First buy Membership\");\r\n// \t}\r\n\t\r\n\r\n    \r\n\tfunction buyToken(uint id) ItemExists(id)\r\n\tcheckMembership(msg.sender)\r\n    IsForSale(id)\r\n    HasTransferApproval(idtolistings[id].tokenId) external payable {\r\n\r\n\trequire(msg.value >= idtolistings[id].price, \"Not enough funds sent\");\r\n      require(msg.sender != idtolistings[id].seller,\"Seller cannot be buyer\");\r\n\r\n\t idtolistings[id].isSold = true;\r\n      activeItems[idtolistings[id].tokenId] = false;\r\n\t\t// Listing storage listing = _listings[listingId];\r\n\r\n\t\t// require(msg.sender != listing.seller, \"Seller cannot be buyer\");\r\n\r\n\t\t// require(listing.status == ListingStatus.Active, \"Listing is not active\");\r\n\r\n\t\t// require(msg.value >= listing.price, \"Insufficient payment\");\r\n\r\n\t\t// listing.status = ListingStatus.Sold;\r\n\t\ttoken.safeTransferFrom(idtolistings[id].seller, msg.sender, idtolistings[id].tokenId);\r\n\t\t_ItemsSold.increment();\r\n      idtolistings[id].seller.transfer(msg.value);\r\n\r\n\t\t// IERC721(listing.token).transferFrom(address(this), msg.sender, listing.tokenId);\r\n\t\t// payable(listing.seller).transfer(listing.price);\r\n\r\n\t\temit Sale(\r\n\t\t\tid,idtolistings[id].tokenId,\r\n\t\t\tmsg.sender,\r\n\t\t\tidtolistings[id].price\r\n\t\t);\r\n\t}\r\n\r\n function totalItemsForSale() external view returns(uint) {\r\n    return Itemscount;\r\n  }\r\n\tfunction getMarketItems() public view returns (Listing[] memory){\r\n\t\tuint itemcount= _ItemIds.current();\r\n\t\tuint unsoldItem= _ItemIds.current() - _ItemsSold.current();\r\n\r\n\t\tuint currentIndex= 0;\r\n\r\n\t\tListing[] memory items= new Listing[] (unsoldItem);\r\n\r\n\t\tfor(uint i=0; i< itemcount;i++)\r\n\t\t{\r\n\t\t\tif(!idtolistings[i+1].isSold)\r\n\t\t\t{\r\n\t\t\t\tuint curentID= idtolistings[i+1].id;\r\n\t\t\t\tListing storage currentItem= idtolistings[curentID];\r\n\t\t\t\titems[currentIndex] = currentItem;\r\n\t\t\t\tcurrentIndex +=1;\r\n\t\t\t}\r\n\t\t}\r\n\r\n\t\treturn items;\r\n\t\t\r\n\t}\r\n\t// function getListing(uint256 id) public view returns (Listing memory) {\r\n\t// \t// require(IERC721(token).ownerOf(tokenId) ==msg.sender, \"First buy Membership\");\r\n\t// \treturn _listings[listingId];\r\n\t// }\r\n    \r\n\t\r\n\r\n\t// function cancel(uint listingId) public {\r\n\t// \tListing storage listing = _listings[listingId];\r\n\r\n\t// \trequire(msg.sender == listing.seller, \"Only seller can cancel listing\");\r\n\t// \trequire(listing.status == ListingStatus.Active, \"Listing is not active\");\r\n\r\n\t// \tlisting.status = ListingStatus.Cancelled;\r\n\t\r\n\t// \tIERC721(listing.token).transferFrom(address(this), msg.sender, listing.tokenId);\r\n\r\n\t// \temit Cancel(listingId, listing.seller);\r\n\t// }\r\n}\r\n",
  "sourcePath": "D:\\blockchainproject\\FinalProject\\contracts\\Market.sol",
  "compiler": {
    "name": "solc",
    "version": "0.8.9+commit.e5eed63a.Emscripten.clang"
  },
  "schemaVersion": "3.4.4",
  "updatedAt": "2022-04-27T22:08:22.465Z",
  "networkType": "ethereum",
  "devdoc": {
    "kind": "dev",
    "methods": {},
    "version": 1
  },
  "userdoc": {
    "kind": "user",
    "methods": {},
    "version": 1
  }
}