{
  "contractName": "MembershipNFT",
  "abi": [
    {
      "inputs": [],
      "stateMutability": "nonpayable",
      "type": "constructor"
    },
    {
      "anonymous": false,
      "inputs": [
        {
          "indexed": true,
          "internalType": "address",
          "name": "owner",
          "type": "address"
        },
        {
          "indexed": true,
          "internalType": "address",
          "name": "approved",
          "type": "address"
        },
        {
          "indexed": true,
          "internalType": "uint256",
          "name": "tokenId",
          "type": "uint256"
        }
      ],
      "name": "Approval",
      "type": "event"
    },
    {
      "anonymous": false,
      "inputs": [
        {
          "indexed": true,
          "internalType": "address",
          "name": "owner",
          "type": "address"
        },
        {
          "indexed": true,
          "internalType": "address",
          "name": "operator",
          "type": "address"
        },
        {
          "indexed": false,
          "internalType": "bool",
          "name": "approved",
          "type": "bool"
        }
      ],
      "name": "ApprovalForAll",
      "type": "event"
    },
    {
      "anonymous": false,
      "inputs": [
        {
          "indexed": true,
          "internalType": "address",
          "name": "from",
          "type": "address"
        },
        {
          "indexed": true,
          "internalType": "address",
          "name": "to",
          "type": "address"
        },
        {
          "indexed": true,
          "internalType": "uint256",
          "name": "tokenId",
          "type": "uint256"
        }
      ],
      "name": "Transfer",
      "type": "event"
    },
    {
      "inputs": [
        {
          "internalType": "uint256",
          "name": "",
          "type": "uint256"
        }
      ],
      "name": "Items",
      "outputs": [
        {
          "internalType": "uint256",
          "name": "id",
          "type": "uint256"
        },
        {
          "internalType": "address",
          "name": "creator",
          "type": "address"
        },
        {
          "internalType": "string",
          "name": "uri",
          "type": "string"
        }
      ],
      "stateMutability": "view",
      "type": "function"
    },
    {
      "inputs": [
        {
          "internalType": "address",
          "name": "to",
          "type": "address"
        },
        {
          "internalType": "uint256",
          "name": "tokenId",
          "type": "uint256"
        }
      ],
      "name": "approve",
      "outputs": [],
      "stateMutability": "nonpayable",
      "type": "function"
    },
    {
      "inputs": [
        {
          "internalType": "address",
          "name": "owner",
          "type": "address"
        }
      ],
      "name": "balanceOf",
      "outputs": [
        {
          "internalType": "uint256",
          "name": "",
          "type": "uint256"
        }
      ],
      "stateMutability": "view",
      "type": "function"
    },
    {
      "inputs": [
        {
          "internalType": "uint256",
          "name": "tokenId",
          "type": "uint256"
        }
      ],
      "name": "getApproved",
      "outputs": [
        {
          "internalType": "address",
          "name": "",
          "type": "address"
        }
      ],
      "stateMutability": "view",
      "type": "function"
    },
    {
      "inputs": [
        {
          "internalType": "address",
          "name": "owner",
          "type": "address"
        },
        {
          "internalType": "address",
          "name": "operator",
          "type": "address"
        }
      ],
      "name": "isApprovedForAll",
      "outputs": [
        {
          "internalType": "bool",
          "name": "",
          "type": "bool"
        }
      ],
      "stateMutability": "view",
      "type": "function"
    },
    {
      "inputs": [],
      "name": "marketplace",
      "outputs": [
        {
          "internalType": "address",
          "name": "",
          "type": "address"
        }
      ],
      "stateMutability": "view",
      "type": "function"
    },
    {
      "inputs": [],
      "name": "name",
      "outputs": [
        {
          "internalType": "string",
          "name": "",
          "type": "string"
        }
      ],
      "stateMutability": "view",
      "type": "function"
    },
    {
      "inputs": [
        {
          "internalType": "uint256",
          "name": "tokenId",
          "type": "uint256"
        }
      ],
      "name": "ownerOf",
      "outputs": [
        {
          "internalType": "address",
          "name": "",
          "type": "address"
        }
      ],
      "stateMutability": "view",
      "type": "function"
    },
    {
      "inputs": [
        {
          "internalType": "address",
          "name": "from",
          "type": "address"
        },
        {
          "internalType": "address",
          "name": "to",
          "type": "address"
        },
        {
          "internalType": "uint256",
          "name": "tokenId",
          "type": "uint256"
        }
      ],
      "name": "safeTransferFrom",
      "outputs": [],
      "stateMutability": "nonpayable",
      "type": "function"
    },
    {
      "inputs": [
        {
          "internalType": "address",
          "name": "from",
          "type": "address"
        },
        {
          "internalType": "address",
          "name": "to",
          "type": "address"
        },
        {
          "internalType": "uint256",
          "name": "tokenId",
          "type": "uint256"
        },
        {
          "internalType": "bytes",
          "name": "_data",
          "type": "bytes"
        }
      ],
      "name": "safeTransferFrom",
      "outputs": [],
      "stateMutability": "nonpayable",
      "type": "function"
    },
    {
      "inputs": [
        {
          "internalType": "address",
          "name": "operator",
          "type": "address"
        },
        {
          "internalType": "bool",
          "name": "approved",
          "type": "bool"
        }
      ],
      "name": "setApprovalForAll",
      "outputs": [],
      "stateMutability": "nonpayable",
      "type": "function"
    },
    {
      "inputs": [
        {
          "internalType": "bytes4",
          "name": "interfaceId",
          "type": "bytes4"
        }
      ],
      "name": "supportsInterface",
      "outputs": [
        {
          "internalType": "bool",
          "name": "",
          "type": "bool"
        }
      ],
      "stateMutability": "view",
      "type": "function"
    },
    {
      "inputs": [],
      "name": "symbol",
      "outputs": [
        {
          "internalType": "string",
          "name": "",
          "type": "string"
        }
      ],
      "stateMutability": "view",
      "type": "function"
    },
    {
      "inputs": [
        {
          "internalType": "uint256",
          "name": "index",
          "type": "uint256"
        }
      ],
      "name": "tokenByIndex",
      "outputs": [
        {
          "internalType": "uint256",
          "name": "",
          "type": "uint256"
        }
      ],
      "stateMutability": "view",
      "type": "function"
    },
    {
      "inputs": [
        {
          "internalType": "address",
          "name": "owner",
          "type": "address"
        },
        {
          "internalType": "uint256",
          "name": "index",
          "type": "uint256"
        }
      ],
      "name": "tokenOfOwnerByIndex",
      "outputs": [
        {
          "internalType": "uint256",
          "name": "",
          "type": "uint256"
        }
      ],
      "stateMutability": "view",
      "type": "function"
    },
    {
      "inputs": [],
      "name": "totalSupply",
      "outputs": [
        {
          "internalType": "uint256",
          "name": "",
          "type": "uint256"
        }
      ],
      "stateMutability": "view",
      "type": "function"
    },
    {
      "inputs": [
        {
          "internalType": "address",
          "name": "from",
          "type": "address"
        },
        {
          "internalType": "address",
          "name": "to",
          "type": "address"
        },
        {
          "internalType": "uint256",
          "name": "tokenId",
          "type": "uint256"
        }
      ],
      "name": "transferFrom",
      "outputs": [],
      "stateMutability": "nonpayable",
      "type": "function"
    },
    {
      "inputs": [
        {
          "internalType": "string",
          "name": "uri",
          "type": "string"
        }
      ],
      "name": "mint",
      "outputs": [
        {
          "internalType": "uint256",
          "name": "",
          "type": "uint256"
        }
      ],
      "stateMutability": "nonpayable",
      "type": "function"
    },
    {
      "inputs": [
        {
          "internalType": "uint256",
          "name": "tokenId",
          "type": "uint256"
        }
      ],
      "name": "tokenURI",
      "outputs": [
        {
          "internalType": "string",
          "name": "",
          "type": "string"
        }
      ],
      "stateMutability": "view",
      "type": "function"
    },
    {
      "inputs": [
        {
          "internalType": "address",
          "name": "market",
          "type": "address"
        }
      ],
      "name": "setMarketplace",
      "outputs": [],
      "stateMutability": "nonpayable",
      "type": "function"
    }
  ],
  "bytecode": "0x60806040523480156200001157600080fd5b506040518060400160405280600a81526020017f4d656d62657273686970000000000000000000000000000000000000000000008152506040518060400160405280600781526020017f4d656d624e465400000000000000000000000000000000000000000000000000815250816000908051906020019062000096929190620000b8565b508060019080519060200190620000af929190620000b8565b505050620001cd565b828054620000c69062000197565b90600052602060002090601f016020900481019282620000ea576000855562000136565b82601f106200010557805160ff191683800117855562000136565b8280016001018555821562000136579182015b828111156200013557825182559160200191906001019062000118565b5b50905062000145919062000149565b5090565b5b80821115620001645760008160009055506001016200014a565b5090565b7f4e487b7100000000000000000000000000000000000000000000000000000000600052602260045260246000fd5b60006002820490506001821680620001b057607f821691505b60208210811415620001c757620001c662000168565b5b50919050565b61316a80620001dd6000396000f3fe608060405234801561001057600080fd5b506004361061012c5760003560e01c80636352211e116100ad578063abc8c7af11610071578063abc8c7af14610369578063b88d4fde14610387578063c87b56dd146103a3578063d85d3d27146103d3578063e985e9c5146104035761012c565b80636352211e146102b357806370a08231146102e357806373ad6c2d1461031357806395d89b411461032f578063a22cb4651461034d5761012c565b806318160ddd116100f457806318160ddd146101fd57806323b872dd1461021b5780632f745c591461023757806342842e0e146102675780634f6ccce7146102835761012c565b806301ffc9a71461013157806306fdde0314610161578063081812fc1461017f578063095ea7b3146101af57806317b47cc4146101cb575b600080fd5b61014b60048036038101906101469190611fac565b610433565b6040516101589190611ff4565b60405180910390f35b6101696104ad565b60405161017691906120a8565b60405180910390f35b61019960048036038101906101949190612100565b61053f565b6040516101a6919061216e565b60405180910390f35b6101c960048036038101906101c491906121b5565b6105c4565b005b6101e560048036038101906101e09190612100565b6106dc565b6040516101f493929190612204565b60405180910390f35b6102056107ae565b6040516102129190612242565b60405180910390f35b6102356004803603810190610230919061225d565b6107bb565b005b610251600480360381019061024c91906121b5565b61081b565b60405161025e9190612242565b60405180910390f35b610281600480360381019061027c919061225d565b6108c0565b005b61029d60048036038101906102989190612100565b6108e0565b6040516102aa9190612242565b60405180910390f35b6102cd60048036038101906102c89190612100565b610951565b6040516102da919061216e565b60405180910390f35b6102fd60048036038101906102f891906122b0565b610a03565b60405161030a9190612242565b60405180910390f35b61032d600480360381019061032891906122b0565b610abb565b005b610337610aff565b60405161034491906120a8565b60405180910390f35b61036760048036038101906103629190612309565b610b91565b005b610371610ba7565b60405161037e919061216e565b60405180910390f35b6103a1600480360381019061039c919061247e565b610bcd565b005b6103bd60048036038101906103b89190612100565b610c2f565b6040516103ca91906120a8565b60405180910390f35b6103ed60048036038101906103e891906125a2565b610d1f565b6040516103fa9190612242565b60405180910390f35b61041d600480360381019061041891906125eb565b610e2d565b60405161042a9190611ff4565b60405180910390f35b60007f780e9d63000000000000000000000000000000000000000000000000000000007bffffffffffffffffffffffffffffffffffffffffffffffffffffffff1916827bffffffffffffffffffffffffffffffffffffffffffffffffffffffff191614806104a657506104a582610ec1565b5b9050919050565b6060600080546104bc9061265a565b80601f01602080910402602001604051908101604052809291908181526020018280546104e89061265a565b80156105355780601f1061050a57610100808354040283529160200191610535565b820191906000526020600020905b81548152906001019060200180831161051857829003601f168201915b5050505050905090565b600061054a82610fa3565b610589576040517f08c379a0000000000000000000000000000000000000000000000000000000008152600401610580906126fe565b60405180910390fd5b6004600083815260200190815260200160002060009054906101000a900473ffffffffffffffffffffffffffffffffffffffff169050919050565b60006105cf82610951565b90508073ffffffffffffffffffffffffffffffffffffffff168373ffffffffffffffffffffffffffffffffffffffff161415610640576040517f08c379a000000000000000000000000000000000000000000000000000000000815260040161063790612790565b60405180910390fd5b8073ffffffffffffffffffffffffffffffffffffffff1661065f61100f565b73ffffffffffffffffffffffffffffffffffffffff16148061068e575061068d8161068861100f565b610e2d565b5b6106cd576040517f08c379a00000000000000000000000000000000000000000000000000000000081526004016106c490612822565b60405180910390fd5b6106d78383611017565b505050565b600c6020528060005260406000206000915090508060000154908060010160009054906101000a900473ffffffffffffffffffffffffffffffffffffffff169080600201805461072b9061265a565b80601f01602080910402602001604051908101604052809291908181526020018280546107579061265a565b80156107a45780601f10610779576101008083540402835291602001916107a4565b820191906000526020600020905b81548152906001019060200180831161078757829003601f168201915b5050505050905083565b6000600880549050905090565b6107cc6107c661100f565b826110d0565b61080b576040517f08c379a0000000000000000000000000000000000000000000000000000000008152600401610802906128b4565b60405180910390fd5b6108168383836111ae565b505050565b600061082683610a03565b8210610867576040517f08c379a000000000000000000000000000000000000000000000000000000000815260040161085e90612946565b60405180910390fd5b600660008473ffffffffffffffffffffffffffffffffffffffff1673ffffffffffffffffffffffffffffffffffffffff168152602001908152602001600020600083815260200190815260200160002054905092915050565b6108db83838360405180602001604052806000815250610bcd565b505050565b60006108ea6107ae565b821061092b576040517f08c379a0000000000000000000000000000000000000000000000000000000008152600401610922906129d8565b60405180910390fd5b6008828154811061093f5761093e6129f8565b5b90600052602060002001549050919050565b6000806002600084815260200190815260200160002060009054906101000a900473ffffffffffffffffffffffffffffffffffffffff169050600073ffffffffffffffffffffffffffffffffffffffff168173ffffffffffffffffffffffffffffffffffffffff1614156109fa576040517f08c379a00000000000000000000000000000000000000000000000000000000081526004016109f190612a99565b60405180910390fd5b80915050919050565b60008073ffffffffffffffffffffffffffffffffffffffff168273ffffffffffffffffffffffffffffffffffffffff161415610a74576040517f08c379a0000000000000000000000000000000000000000000000000000000008152600401610a6b90612b2b565b60405180910390fd5b600360008373ffffffffffffffffffffffffffffffffffffffff1673ffffffffffffffffffffffffffffffffffffffff168152602001908152602001600020549050919050565b80600b60006101000a81548173ffffffffffffffffffffffffffffffffffffffff021916908373ffffffffffffffffffffffffffffffffffffffff16021790555050565b606060018054610b0e9061265a565b80601f0160208091040260200160405190810160405280929190818152602001828054610b3a9061265a565b8015610b875780601f10610b5c57610100808354040283529160200191610b87565b820191906000526020600020905b815481529060010190602001808311610b6a57829003601f168201915b5050505050905090565b610ba3610b9c61100f565b8383611415565b5050565b600b60009054906101000a900473ffffffffffffffffffffffffffffffffffffffff1681565b610bde610bd861100f565b836110d0565b610c1d576040517f08c379a0000000000000000000000000000000000000000000000000000000008152600401610c14906128b4565b60405180910390fd5b610c2984848484611582565b50505050565b6060610c3a82610fa3565b610c79576040517f08c379a0000000000000000000000000000000000000000000000000000000008152600401610c7090612bbd565b60405180910390fd5b600c60008381526020019081526020016000206002018054610c9a9061265a565b80601f0160208091040260200160405190810160405280929190818152602001828054610cc69061265a565b8015610d135780601f10610ce857610100808354040283529160200191610d13565b820191906000526020600020905b815481529060010190602001808311610cf657829003601f168201915b50505050509050919050565b6000610d2b600a6115de565b6000610d37600a6115f4565b9050610d433382611602565b610d6f600b60009054906101000a900473ffffffffffffffffffffffffffffffffffffffff16826105c4565b60405180606001604052808281526020013373ffffffffffffffffffffffffffffffffffffffff16815260200184815250600c60008381526020019081526020016000206000820151816000015560208201518160010160006101000a81548173ffffffffffffffffffffffffffffffffffffffff021916908373ffffffffffffffffffffffffffffffffffffffff1602179055506040820151816002019080519060200190610e20929190611e9d565b5090505080915050919050565b6000600560008473ffffffffffffffffffffffffffffffffffffffff1673ffffffffffffffffffffffffffffffffffffffff16815260200190815260200160002060008373ffffffffffffffffffffffffffffffffffffffff1673ffffffffffffffffffffffffffffffffffffffff16815260200190815260200160002060009054906101000a900460ff16905092915050565b60007f80ac58cd000000000000000000000000000000000000000000000000000000007bffffffffffffffffffffffffffffffffffffffffffffffffffffffff1916827bffffffffffffffffffffffffffffffffffffffffffffffffffffffff19161480610f8c57507f5b5e139f000000000000000000000000000000000000000000000000000000007bffffffffffffffffffffffffffffffffffffffffffffffffffffffff1916827bffffffffffffffffffffffffffffffffffffffffffffffffffffffff1916145b80610f9c5750610f9b82611620565b5b9050919050565b60008073ffffffffffffffffffffffffffffffffffffffff166002600084815260200190815260200160002060009054906101000a900473ffffffffffffffffffffffffffffffffffffffff1673ffffffffffffffffffffffffffffffffffffffff1614159050919050565b600033905090565b816004600083815260200190815260200160002060006101000a81548173ffffffffffffffffffffffffffffffffffffffff021916908373ffffffffffffffffffffffffffffffffffffffff160217905550808273ffffffffffffffffffffffffffffffffffffffff1661108a83610951565b73ffffffffffffffffffffffffffffffffffffffff167f8c5be1e5ebec7d5bd14f71427d1e84f3dd0314c0f7b2291e5b200ac8c7c3b92560405160405180910390a45050565b60006110db82610fa3565b61111a576040517f08c379a000000000000000000000000000000000000000000000000000000000815260040161111190612c4f565b60405180910390fd5b600061112583610951565b90508073ffffffffffffffffffffffffffffffffffffffff168473ffffffffffffffffffffffffffffffffffffffff16148061119457508373ffffffffffffffffffffffffffffffffffffffff1661117c8461053f565b73ffffffffffffffffffffffffffffffffffffffff16145b806111a557506111a48185610e2d565b5b91505092915050565b8273ffffffffffffffffffffffffffffffffffffffff166111ce82610951565b73ffffffffffffffffffffffffffffffffffffffff1614611224576040517f08c379a000000000000000000000000000000000000000000000000000000000815260040161121b90612ce1565b60405180910390fd5b600073ffffffffffffffffffffffffffffffffffffffff168273ffffffffffffffffffffffffffffffffffffffff161415611294576040517f08c379a000000000000000000000000000000000000000000000000000000000815260040161128b90612d73565b60405180910390fd5b61129f83838361168a565b6112aa600082611017565b6001600360008573ffffffffffffffffffffffffffffffffffffffff1673ffffffffffffffffffffffffffffffffffffffff16815260200190815260200160002060008282546112fa9190612dc2565b925050819055506001600360008473ffffffffffffffffffffffffffffffffffffffff1673ffffffffffffffffffffffffffffffffffffffff16815260200190815260200160002060008282546113519190612df6565b92505081905550816002600083815260200190815260200160002060006101000a81548173ffffffffffffffffffffffffffffffffffffffff021916908373ffffffffffffffffffffffffffffffffffffffff160217905550808273ffffffffffffffffffffffffffffffffffffffff168473ffffffffffffffffffffffffffffffffffffffff167fddf252ad1be2c89b69c2b068fc378daa952ba7f163c4a11628f55a4df523b3ef60405160405180910390a461141083838361179e565b505050565b8173ffffffffffffffffffffffffffffffffffffffff168373ffffffffffffffffffffffffffffffffffffffff161415611484576040517f08c379a000000000000000000000000000000000000000000000000000000000815260040161147b90612e98565b60405180910390fd5b80600560008573ffffffffffffffffffffffffffffffffffffffff1673ffffffffffffffffffffffffffffffffffffffff16815260200190815260200160002060008473ffffffffffffffffffffffffffffffffffffffff1673ffffffffffffffffffffffffffffffffffffffff16815260200190815260200160002060006101000a81548160ff0219169083151502179055508173ffffffffffffffffffffffffffffffffffffffff168373ffffffffffffffffffffffffffffffffffffffff167f17307eab39ab6107e8899845ad3d59bd9653f200f220920489ca2b5937696c31836040516115759190611ff4565b60405180910390a3505050565b61158d8484846111ae565b611599848484846117a3565b6115d8576040517f08c379a00000000000000000000000000000000000000000000000000000000081526004016115cf90612f2a565b60405180910390fd5b50505050565b6001816000016000828254019250508190555050565b600081600001549050919050565b61161c82826040518060200160405280600081525061193a565b5050565b60007f01ffc9a7000000000000000000000000000000000000000000000000000000007bffffffffffffffffffffffffffffffffffffffffffffffffffffffff1916827bffffffffffffffffffffffffffffffffffffffffffffffffffffffff1916149050919050565b611695838383611995565b600073ffffffffffffffffffffffffffffffffffffffff168373ffffffffffffffffffffffffffffffffffffffff1614156116d8576116d38161199a565b611717565b8173ffffffffffffffffffffffffffffffffffffffff168373ffffffffffffffffffffffffffffffffffffffff16146117165761171583826119e3565b5b5b600073ffffffffffffffffffffffffffffffffffffffff168273ffffffffffffffffffffffffffffffffffffffff16141561175a5761175581611b50565b611799565b8273ffffffffffffffffffffffffffffffffffffffff168273ffffffffffffffffffffffffffffffffffffffff1614611798576117978282611c21565b5b5b505050565b505050565b60006117c48473ffffffffffffffffffffffffffffffffffffffff16611ca0565b1561192d578373ffffffffffffffffffffffffffffffffffffffff1663150b7a026117ed61100f565b8786866040518563ffffffff1660e01b815260040161180f9493929190612f9f565b602060405180830381600087803b15801561182957600080fd5b505af192505050801561185a57506040513d601f19601f820116820180604052508101906118579190613000565b60015b6118dd573d806000811461188a576040519150601f19603f3d011682016040523d82523d6000602084013e61188f565b606091505b506000815114156118d5576040517f08c379a00000000000000000000000000000000000000000000000000000000081526004016118cc90612f2a565b60405180910390fd5b805181602001fd5b63150b7a0260e01b7bffffffffffffffffffffffffffffffffffffffffffffffffffffffff1916817bffffffffffffffffffffffffffffffffffffffffffffffffffffffff191614915050611932565b600190505b949350505050565b6119448383611cc3565b61195160008484846117a3565b611990576040517f08c379a000000000000000000000000000000000000000000000000000000000815260040161198790612f2a565b60405180910390fd5b505050565b505050565b6008805490506009600083815260200190815260200160002081905550600881908060018154018082558091505060019003906000526020600020016000909190919091505550565b600060016119f084610a03565b6119fa9190612dc2565b9050600060076000848152602001908152602001600020549050818114611adf576000600660008673ffffffffffffffffffffffffffffffffffffffff1673ffffffffffffffffffffffffffffffffffffffff168152602001908152602001600020600084815260200190815260200160002054905080600660008773ffffffffffffffffffffffffffffffffffffffff1673ffffffffffffffffffffffffffffffffffffffff168152602001908152602001600020600084815260200190815260200160002081905550816007600083815260200190815260200160002081905550505b6007600084815260200190815260200160002060009055600660008573ffffffffffffffffffffffffffffffffffffffff1673ffffffffffffffffffffffffffffffffffffffff16815260200190815260200160002060008381526020019081526020016000206000905550505050565b60006001600880549050611b649190612dc2565b9050600060096000848152602001908152602001600020549050600060088381548110611b9457611b936129f8565b5b906000526020600020015490508060088381548110611bb657611bb56129f8565b5b906000526020600020018190555081600960008381526020019081526020016000208190555060096000858152602001908152602001600020600090556008805480611c0557611c0461302d565b5b6001900381819060005260206000200160009055905550505050565b6000611c2c83610a03565b905081600660008573ffffffffffffffffffffffffffffffffffffffff1673ffffffffffffffffffffffffffffffffffffffff168152602001908152602001600020600083815260200190815260200160002081905550806007600084815260200190815260200160002081905550505050565b6000808273ffffffffffffffffffffffffffffffffffffffff163b119050919050565b600073ffffffffffffffffffffffffffffffffffffffff168273ffffffffffffffffffffffffffffffffffffffff161415611d33576040517f08c379a0000000000000000000000000000000000000000000000000000000008152600401611d2a906130a8565b60405180910390fd5b611d3c81610fa3565b15611d7c576040517f08c379a0000000000000000000000000000000000000000000000000000000008152600401611d7390613114565b60405180910390fd5b611d886000838361168a565b6001600360008473ffffffffffffffffffffffffffffffffffffffff1673ffffffffffffffffffffffffffffffffffffffff1681526020019081526020016000206000828254611dd89190612df6565b92505081905550816002600083815260200190815260200160002060006101000a81548173ffffffffffffffffffffffffffffffffffffffff021916908373ffffffffffffffffffffffffffffffffffffffff160217905550808273ffffffffffffffffffffffffffffffffffffffff16600073ffffffffffffffffffffffffffffffffffffffff167fddf252ad1be2c89b69c2b068fc378daa952ba7f163c4a11628f55a4df523b3ef60405160405180910390a4611e996000838361179e565b5050565b828054611ea99061265a565b90600052602060002090601f016020900481019282611ecb5760008555611f12565b82601f10611ee457805160ff1916838001178555611f12565b82800160010185558215611f12579182015b82811115611f11578251825591602001919060010190611ef6565b5b509050611f1f9190611f23565b5090565b5b80821115611f3c576000816000905550600101611f24565b5090565b6000604051905090565b600080fd5b600080fd5b60007fffffffff0000000000000000000000000000000000000000000000000000000082169050919050565b611f8981611f54565b8114611f9457600080fd5b50565b600081359050611fa681611f80565b92915050565b600060208284031215611fc257611fc1611f4a565b5b6000611fd084828501611f97565b91505092915050565b60008115159050919050565b611fee81611fd9565b82525050565b60006020820190506120096000830184611fe5565b92915050565b600081519050919050565b600082825260208201905092915050565b60005b8381101561204957808201518184015260208101905061202e565b83811115612058576000848401525b50505050565b6000601f19601f8301169050919050565b600061207a8261200f565b612084818561201a565b935061209481856020860161202b565b61209d8161205e565b840191505092915050565b600060208201905081810360008301526120c2818461206f565b905092915050565b6000819050919050565b6120dd816120ca565b81146120e857600080fd5b50565b6000813590506120fa816120d4565b92915050565b60006020828403121561211657612115611f4a565b5b6000612124848285016120eb565b91505092915050565b600073ffffffffffffffffffffffffffffffffffffffff82169050919050565b60006121588261212d565b9050919050565b6121688161214d565b82525050565b6000602082019050612183600083018461215f565b92915050565b6121928161214d565b811461219d57600080fd5b50565b6000813590506121af81612189565b92915050565b600080604083850312156121cc576121cb611f4a565b5b60006121da858286016121a0565b92505060206121eb858286016120eb565b9150509250929050565b6121fe816120ca565b82525050565b600060608201905061221960008301866121f5565b612226602083018561215f565b8181036040830152612238818461206f565b9050949350505050565b600060208201905061225760008301846121f5565b92915050565b60008060006060848603121561227657612275611f4a565b5b6000612284868287016121a0565b9350506020612295868287016121a0565b92505060406122a6868287016120eb565b9150509250925092565b6000602082840312156122c6576122c5611f4a565b5b60006122d4848285016121a0565b91505092915050565b6122e681611fd9565b81146122f157600080fd5b50565b600081359050612303816122dd565b92915050565b600080604083850312156123205761231f611f4a565b5b600061232e858286016121a0565b925050602061233f858286016122f4565b9150509250929050565b600080fd5b600080fd5b7f4e487b7100000000000000000000000000000000000000000000000000000000600052604160045260246000fd5b61238b8261205e565b810181811067ffffffffffffffff821117156123aa576123a9612353565b5b80604052505050565b60006123bd611f40565b90506123c98282612382565b919050565b600067ffffffffffffffff8211156123e9576123e8612353565b5b6123f28261205e565b9050602081019050919050565b82818337600083830152505050565b600061242161241c846123ce565b6123b3565b90508281526020810184848401111561243d5761243c61234e565b5b6124488482856123ff565b509392505050565b600082601f83011261246557612464612349565b5b813561247584826020860161240e565b91505092915050565b6000806000806080858703121561249857612497611f4a565b5b60006124a6878288016121a0565b94505060206124b7878288016121a0565b93505060406124c8878288016120eb565b925050606085013567ffffffffffffffff8111156124e9576124e8611f4f565b5b6124f587828801612450565b91505092959194509250565b600067ffffffffffffffff82111561251c5761251b612353565b5b6125258261205e565b9050602081019050919050565b600061254561254084612501565b6123b3565b9050828152602081018484840111156125615761256061234e565b5b61256c8482856123ff565b509392505050565b600082601f83011261258957612588612349565b5b8135612599848260208601612532565b91505092915050565b6000602082840312156125b8576125b7611f4a565b5b600082013567ffffffffffffffff8111156125d6576125d5611f4f565b5b6125e284828501612574565b91505092915050565b6000806040838503121561260257612601611f4a565b5b6000612610858286016121a0565b9250506020612621858286016121a0565b9150509250929050565b7f4e487b7100000000000000000000000000000000000000000000000000000000600052602260045260246000fd5b6000600282049050600182168061267257607f821691505b602082108114156126865761268561262b565b5b50919050565b7f4552433732313a20617070726f76656420717565727920666f72206e6f6e657860008201527f697374656e7420746f6b656e0000000000000000000000000000000000000000602082015250565b60006126e8602c8361201a565b91506126f38261268c565b604082019050919050565b60006020820190508181036000830152612717816126db565b9050919050565b7f4552433732313a20617070726f76616c20746f2063757272656e74206f776e6560008201527f7200000000000000000000000000000000000000000000000000000000000000602082015250565b600061277a60218361201a565b91506127858261271e565b604082019050919050565b600060208201905081810360008301526127a98161276d565b9050919050565b7f4552433732313a20617070726f76652063616c6c6572206973206e6f74206f7760008201527f6e6572206e6f7220617070726f76656420666f7220616c6c0000000000000000602082015250565b600061280c60388361201a565b9150612817826127b0565b604082019050919050565b6000602082019050818103600083015261283b816127ff565b9050919050565b7f4552433732313a207472616e736665722063616c6c6572206973206e6f74206f60008201527f776e6572206e6f7220617070726f766564000000000000000000000000000000602082015250565b600061289e60318361201a565b91506128a982612842565b604082019050919050565b600060208201905081810360008301526128cd81612891565b9050919050565b7f455243373231456e756d657261626c653a206f776e657220696e646578206f7560008201527f74206f6620626f756e6473000000000000000000000000000000000000000000602082015250565b6000612930602b8361201a565b915061293b826128d4565b604082019050919050565b6000602082019050818103600083015261295f81612923565b9050919050565b7f455243373231456e756d657261626c653a20676c6f62616c20696e646578206f60008201527f7574206f6620626f756e64730000000000000000000000000000000000000000602082015250565b60006129c2602c8361201a565b91506129cd82612966565b604082019050919050565b600060208201905081810360008301526129f1816129b5565b9050919050565b7f4e487b7100000000000000000000000000000000000000000000000000000000600052603260045260246000fd5b7f4552433732313a206f776e657220717565727920666f72206e6f6e657869737460008201527f656e7420746f6b656e0000000000000000000000000000000000000000000000602082015250565b6000612a8360298361201a565b9150612a8e82612a27565b604082019050919050565b60006020820190508181036000830152612ab281612a76565b9050919050565b7f4552433732313a2062616c616e636520717565727920666f7220746865207a6560008201527f726f206164647265737300000000000000000000000000000000000000000000602082015250565b6000612b15602a8361201a565b9150612b2082612ab9565b604082019050919050565b60006020820190508181036000830152612b4481612b08565b9050919050565b7f45524337323155524953746f726167653a2055524920717565727920666f722060008201527f6e6f6e6578697374656e7420746f6b656e000000000000000000000000000000602082015250565b6000612ba760318361201a565b9150612bb282612b4b565b604082019050919050565b60006020820190508181036000830152612bd681612b9a565b9050919050565b7f4552433732313a206f70657261746f7220717565727920666f72206e6f6e657860008201527f697374656e7420746f6b656e0000000000000000000000000000000000000000602082015250565b6000612c39602c8361201a565b9150612c4482612bdd565b604082019050919050565b60006020820190508181036000830152612c6881612c2c565b9050919050565b7f4552433732313a207472616e736665722066726f6d20696e636f72726563742060008201527f6f776e6572000000000000000000000000000000000000000000000000000000602082015250565b6000612ccb60258361201a565b9150612cd682612c6f565b604082019050919050565b60006020820190508181036000830152612cfa81612cbe565b9050919050565b7f4552433732313a207472616e7366657220746f20746865207a65726f2061646460008201527f7265737300000000000000000000000000000000000000000000000000000000602082015250565b6000612d5d60248361201a565b9150612d6882612d01565b604082019050919050565b60006020820190508181036000830152612d8c81612d50565b9050919050565b7f4e487b7100000000000000000000000000000000000000000000000000000000600052601160045260246000fd5b6000612dcd826120ca565b9150612dd8836120ca565b925082821015612deb57612dea612d93565b5b828203905092915050565b6000612e01826120ca565b9150612e0c836120ca565b9250827fffffffffffffffffffffffffffffffffffffffffffffffffffffffffffffffff03821115612e4157612e40612d93565b5b828201905092915050565b7f4552433732313a20617070726f766520746f2063616c6c657200000000000000600082015250565b6000612e8260198361201a565b9150612e8d82612e4c565b602082019050919050565b60006020820190508181036000830152612eb181612e75565b9050919050565b7f4552433732313a207472616e7366657220746f206e6f6e20455243373231526560008201527f63656976657220696d706c656d656e7465720000000000000000000000000000602082015250565b6000612f1460328361201a565b9150612f1f82612eb8565b604082019050919050565b60006020820190508181036000830152612f4381612f07565b9050919050565b600081519050919050565b600082825260208201905092915050565b6000612f7182612f4a565b612f7b8185612f55565b9350612f8b81856020860161202b565b612f948161205e565b840191505092915050565b6000608082019050612fb4600083018761215f565b612fc1602083018661215f565b612fce60408301856121f5565b8181036060830152612fe08184612f66565b905095945050505050565b600081519050612ffa81611f80565b92915050565b60006020828403121561301657613015611f4a565b5b600061302484828501612feb565b91505092915050565b7f4e487b7100000000000000000000000000000000000000000000000000000000600052603160045260246000fd5b7f4552433732313a206d696e7420746f20746865207a65726f2061646472657373600082015250565b600061309260208361201a565b915061309d8261305c565b602082019050919050565b600060208201905081810360008301526130c181613085565b9050919050565b7f4552433732313a20746f6b656e20616c7265616479206d696e74656400000000600082015250565b60006130fe601c8361201a565b9150613109826130c8565b602082019050919050565b6000602082019050818103600083015261312d816130f1565b905091905056fea26469706673582212204aed2271b22e635e373446da27e8482f0f7137e6a954f14d3fc8d2aa7dbbae6864736f6c63430008090033",
  "immutableReferences": {},
  "source": "// SPDX-License-Identifier: MIT\r\npragma solidity  ^0.8.9;\r\n\r\nimport \"@openzeppelin/contracts/token/ERC721/ERC721.sol\";\r\n// import \"@openzeppelin/contracts/token/ERC721/ERC721.sol\";\r\nimport \"@openzeppelin/contracts/token/ERC721/extensions/ERC721Enumerable.sol\";\r\nimport \"@openzeppelin/contracts/token/ERC721/extensions/ERC721URIStorage.sol\";\r\nimport \"@openzeppelin/contracts/utils/Counters.sol\";\r\ncontract MembershipNFT is  ERC721Enumerable{\r\n     using Counters for Counters.Counter;\r\n\r\n  Counters.Counter private _tokenIds;\r\n  address public marketplace;\r\n\r\n  struct Item {\r\n    uint256 id;\r\n    address creator;\r\n    string uri;\r\n  }\r\n    // address contractaddress;\r\n     mapping(uint256 => Item) public Items; \r\n\r\n    constructor() ERC721(\"Membership\", \"MembNFT\"){}\r\n\r\n\r\n    // uint private  _tokenId = 0;\r\n    // uint public tokencount=0;\r\n\r\n    function mint(string memory uri) external returns (uint) {\r\n        _tokenIds.increment();\r\n         uint256 newItemId = _tokenIds.current();\r\n         _safeMint(msg.sender, newItemId);\r\n        // _mint(msg.sender, _tokenId);\r\n        // setApprovalForAll(marketplace,true);\r\n        // _approve(maadress, _tokenId);\r\n        approve(marketplace, newItemId);\r\n\r\n        Items[newItemId] = Item({\r\n      id: newItemId, \r\n      creator: msg.sender,\r\n       uri: uri\r\n            });\r\n        return newItemId;\r\n    }\r\n\r\n    function tokenURI(uint256 tokenId) public view override returns (string memory) {\r\n    require(_exists(tokenId), \"ERC721URIStorage: URI query for nonexistent token\");\r\n    return Items[tokenId].uri;\r\n  }\r\n\r\n  function setMarketplace(address market) public {\r\n    marketplace = market;\r\n  }\r\n\r\n}",
  "sourcePath": "D:\\blockchainproject\\FinalProject\\contracts\\MembershipNFT.sol",
  "compiler": {
    "name": "solc",
    "version": "0.8.9+commit.e5eed63a.Emscripten.clang"
  },
  "schemaVersion": "3.4.4",
  "updatedAt": "2022-04-27T06:30:57.187Z",
  "devdoc": {
    "kind": "dev",
    "methods": {
      "approve(address,uint256)": {
        "details": "See {IERC721-approve}."
      },
      "balanceOf(address)": {
        "details": "See {IERC721-balanceOf}."
      },
      "getApproved(uint256)": {
        "details": "See {IERC721-getApproved}."
      },
      "isApprovedForAll(address,address)": {
        "details": "See {IERC721-isApprovedForAll}."
      },
      "name()": {
        "details": "See {IERC721Metadata-name}."
      },
      "ownerOf(uint256)": {
        "details": "See {IERC721-ownerOf}."
      },
      "safeTransferFrom(address,address,uint256)": {
        "details": "See {IERC721-safeTransferFrom}."
      },
      "safeTransferFrom(address,address,uint256,bytes)": {
        "details": "See {IERC721-safeTransferFrom}."
      },
      "setApprovalForAll(address,bool)": {
        "details": "See {IERC721-setApprovalForAll}."
      },
      "supportsInterface(bytes4)": {
        "details": "See {IERC165-supportsInterface}."
      },
      "symbol()": {
        "details": "See {IERC721Metadata-symbol}."
      },
      "tokenByIndex(uint256)": {
        "details": "See {IERC721Enumerable-tokenByIndex}."
      },
      "tokenOfOwnerByIndex(address,uint256)": {
        "details": "See {IERC721Enumerable-tokenOfOwnerByIndex}."
      },
      "tokenURI(uint256)": {
        "details": "See {IERC721Metadata-tokenURI}."
      },
      "totalSupply()": {
        "details": "See {IERC721Enumerable-totalSupply}."
      },
      "transferFrom(address,address,uint256)": {
        "details": "See {IERC721-transferFrom}."
      }
    },
    "version": 1
  },
  "userdoc": {
    "kind": "user",
    "methods": {},
    "version": 1
  }
}